:020000040800F2
:10400000000002203D480008ED470008EF47000887
:10401000F1470008F3470008F547000800000000DA
:10402000000000000000000000000000F74700084A
:10403000F947000800000000FB470008FD470008A2
:104040008D4800088D4800088D4800088D480008FC
:104050008D4800088D4800088D4800088D480008EC
:104060008D4800088D4800088D4800088D480008DC
:104070008D4800088D4800088D4800088D480008CC
:104080008D4800088D4800088D4800088D480008BC
:104090008D4800088D4800088D4800088D480008AC
:1040A0008D4800088D4800088D4800088D4800089C
:1040B0008D4800088D4800088D4800088D4800088C
:1040C0008D4800088D4800088D4800088D4800087C
:1040D0008D4800088D4800088D4800088D4800086C
:1040E0008D4800088D4800088D4800088D4800085C
:1040F0008D4800088D4800088D4800088D4800084C
:104100008D4800088D4800088D4800088D4800083B
:104110008D4800088D4800088D4800088D4800082B
:104120008D4800088D4800088D4800088D4800081B
:104130008D4800088D4800088D4800088D4800080B
:104140008D4800088D4800088D480008194800086F
:104150008D4800088D4800088D4800088D480008EB
:104160008D4800088D4800088D4800088D480008DB
:104170008D4800088D4800088D48000800000000A8
:084180008D4800088D4800087D
:1041880010B5054C237833B9044B13B10448AFF389
:1041980000800123237010BD0001002000000000F2
:1041A800A4A2000808B5034B1BB103490348AFF3A9
:1041B800008008BD0000000004010020A4A200083F
:1041C80053B94AB9002908BF00281CBF4FF0FF3176
:1041D8004FF0FF3000F088B9ADF1080C6DE904CE5E
:1041E80000F006F8DDF804E0DDE9022304B07047CA
:1041F8002DE9F047089D0F4604468C46002B48D110
:104208008A42164661D9B2FA82F34BB1C3F1200251
:1042180001FA03FC20FA02F29E4042EA0C0C9C4090
:104228004FEA164EB7B2BCFBFEF1220C0EFB11CCC6
:1042380042EA0C4201FB07F0904209D9B21801F199
:10424800FF3C80F0EE80904240F2EB80023932442D
:10425800121AA4B2B2FBFEF00EFB102244EA02448A
:1042680000FB07F7A74209D9341900F1FF3280F0A3
:10427800DA80A74240F2D7803444023840EA01404D
:10428800E41B00211DB1DC400023C5E90043BDE863
:10429800F0878B4206D90DB1C5E900010021084617
:1042A800BDE8F087B3FA83F1002948D1BB4202D3B5
:1042B800824200F20781841A67EB030201209446C8
:1042C800002DE4D0C5E9004CE1E7002A00F0928017
:1042D800B2FA82F3002B40F0A8808A1A4FEA164EF1
:1042E8001FFA86FC0121200CB2FBFEF70EFB1722F9
:1042F80040EA02420CFB07F0904207D9B21807F1D6
:10430800FF3802D2904200F2E2804746121AA4B265
:10431800B2FBFEF00EFB102244EA02440CFB00FC48
:10432800A44507D9341900F1FF3202D2A44500F29E
:10433800CB801046A4EB0C0440EA0740A2E7C1F189
:1043480020068B4022FA06FC4CEA030C07FA01F41B
:1043580020FA06F3F7404FEA1C49234300FA01F814
:104368001FFA8CFEB7FBF9F01C0C09FB107744EA26
:10437800074400FB0EF7A74202FA01F20AD91CEB28
:10438800040400F1FF3A80F09B80A74240F2988035
:1043980002386444E41B9FB2B4FBF9F309FB1344ED
:1043A80047EA044403FB0EFEA64509D91CEB0404A6
:1043B80003F1FF3780F08280A6457FD9023B644431
:1043C80043EA0040A4EB0E04A0FB02E7BC4273469C
:1043D800B94663D360D05DB1B8EB030264EB09045E
:1043E80004FA06F622FA01F31E43CC40C5E900643C
:1043F80000214CE76208480842EAC1710B0C43EA05
:1044080000438AB242EA0342B3FBF6F1E407B4463A
:104418003746B6461F23B0FBF6F0D21B41EA0041EF
:1044280061E7614614E7104628E7C3F1200120FA46
:1044380001F29E4027FA01F19F403A434FEA164E97
:104448001FFA86FCB1FBFEF70EFB1710110C41EAB0
:10445800004107FB0CF8884504FA03F43AD97118AF
:1044680007F1FF3001D288451FD8A1EB0801B1FB45
:10447800FEF808FB0CF70EFB181192B242EA014253
:10448800BA422FD2B21808F1FF31C6D2BA42C4D20A
:10449800A8F102013244C0E7F0459CD2BEEB02030A
:1044A80067EB0C070138B94695E7A6EB08084144C5
:1044B800B81EB1FBFEF808FB0CF7DCE73B467FE7CC
:1044C800504667E70846FBE63444023832E7023FC5
:1044D80032441BE7A1EB08013846B1FBFEF808FBA4
:1044E8000CF7C8E7414698E7704700BFF0B58BB0B6
:1044F80005AD002405940694079408940994019442
:10450800284B1A6B42F080021A631A6B02F0800281
:104518000192019A02941A6B42F001021A631A6B13
:1045280002F001020292029A03941A6B42F0080206
:104538001A631A6B02F008020392039A04941A6B26
:1045480042F004021A631B6B03F004030493049BF8
:10455800154E22464FF40041304600F06BFB012215
:104568000821304600F066FB04230593069407945F
:1045780029460E4800F068FA4FF4004305930127D6
:104588000697079408942946304600F05DFA0823F8
:1045980005930697079708942946304600F054FA81
:1045A8000BB0F0BD00380240000C02400000024091
:1045B80072B6FEE710B594B008AC30220021204650
:1045C80005F040FE00230393049305930693079395
:1045D8000193204A116C41F080511164126C02F071
:1045E80080520192019A02931B4B1A6842F480424E
:1045F8001A601B6803F480430293029B012308930B
:104608004FF48033099302230E934FF480020F92E4
:1046180004221092D8221192129309231393204650
:1046280001F064F990B90F23039302230493002344
:1046380005934FF4A05306934FF480530793052135
:1046480003A801F0BDFB18B914B010BDFFF7B0FF07
:10465800FFF7AEFF003802400070004008B572B6A0
:104668000A4B0B4A9A6062B600F034F9FFF7A2FFD2
:104678000023084A1360A2F5805253609360FFF745
:1046880035FF05F089FB00F007F8FEE700ED00E0D4
:10469800004000080030014008B50F480F4B036088
:1046A8000023436083604FF40072C26003614FF4DB
:1046B800804343610223836102F05EF930B94FF40D
:1046C8000061054802F074F918B908BDFFF770FFDA
:1046D800F5E7FFF76DFFF8E71C010020002C01400B
:1046E8002DE9F04188B000230393049305930693C2
:1046F80007930268214B9A4202D008B0BDE8F081C6
:104708000024009403F586335A6C42F400625A641C
:104718005A6C02F400620092009A01941A6B42F0FB
:1047280004021A631A6B02F004020192019A0294BD
:104738001A6B42F008021A631B6B03F0080302931A
:10474800029B4FF4F85303934FF00208CDF8108002
:10475800032706970C2607960DEB060529460848F9
:1047680000F072F904230393CDF81080059406979E
:1047780007962946034800F067F9BEE7002C014078
:1047880000080240000C024082B0002100910B4B4F
:104798005A6C42F480425A645A6C02F48042009285
:1047A800009A01911A6C42F080521A641B6C03F053
:1047B80080530193019B02B0704700BF003802404C
:1047C800BFF34F8F0549CA6802F4E062044B1343F4
:1047D800CB60BFF34F8F00BFFDE700BF00ED00E0E7
:1047E8000400FA05FEE7FEE7FEE7FEE7FEE770478E
:1047F8007047704708B5054B1B6913F0040F02D0CA
:1048080000F082F808BDFFF7DBFF00BF00000240A0
:1048180008B5024800F045FD08BD00BF2C47002040
:10482800034AD2F8883043F47003C2F888307047DE
:1048380000ED00E0DFF834D00D480E490E4A0023A1
:1048480002E0D458C4500433C4188C42F9D30B4A3C
:104858000B4C002301E013600432A242FBD3FFF7A4
:10486800DFFF05F0F7FCFFF7F9FE704700000220B4
:10487800000000200001002044A3000800010020DF
:10488800104C0020FEE7000010B504460E4B1868D7
:104898000E4B1A784FF47A73B3FBF2F3B0FBF3F0D4
:1048A80000F0BEF868B90F2C01D901200AE00022F7
:1048B80021464FF0FF3000F09FF8054B1C600020A8
:1048C80000E0012010BD00BF00000020040000200F
:1048D8000800002008B50B4B1A6842F400721A60F1
:1048E8001A6842F480621A601A6842F480721A6088
:1048F800032000F06FF80F20FFF7C6FFFFF744FF13
:10490800002008BD003C0240034A1168034B1B7895
:104918000B441360704700BFA00100200400002072
:10492800014B1868704700BFA001002038B5044645
:10493800FFF7F6FF0546B4F1FF3F02D0044B1B78A2
:104948001C44FFF7EDFF401BA042FAD338BD00BF5F
:1049580004000020002807DB00F01F0240090123A3
:104968009340024A42F82030704700BF00E100E05F
:10497800002808DB0901C9B200F1604000F5614078
:1049880080F80013704700F00F000901C9B2014B0D
:104998001954704714ED00E000B500F00700C0F1AD
:1049A800070CBCF1040F28BF4FF0040C031D062BA5
:1049B8000ED9C31E4FF0FF3E0EFA0CF021EA00019B
:1049C80099400EFA03FE22EA0E0241EA020000BDF7
:1049D8000023EFE7074AD36823F4E0631B041B0CAA
:1049E800000200F4E060034343F0BF6343F4003384
:1049F800D360704700ED00E010B50446054BD86859
:104A0800C0F30220FFF7C8FF01462046FFF7B0FFBA
:104A180010BD00BF00ED00E008B5FFF79BFF08BD23
:104A28000138B0F1807F0BD24FF0E0235861054A7E
:104A3800F02182F823100020986107221A6170473C
:104A48000120704700ED00E000230F2B00F2E98001
:104A580070B582B065E085684FEA430E032404FA16
:104A68000EF425EA0405CC6804FA0EF42C4384609D
:104A7800446824EA02044A68C2F300129A402243B6
:104A880042605CE0DC08083450F8242003F0070595
:104A9800AD004FF00F0E0EFA05FE22EA0E0E0A695F
:104AA800AA4042EA0E0240F824205CE0072200E017
:104AB800002202FA0EF22A4302345A4D45F8242005
:104AC800594A94686FEA0C0224EA0C054E6816F4F9
:104AD800801F01D04CEA0405534CA560E46802EA43
:104AE80004054E6816F4001F01D04CEA04054E4C2C
:104AF800E560646802EA04054E6816F4003F01D0D8
:104B08004CEA0405484C6560246822404D6815F459
:104B1800803F01D04CEA0402434C226001330F2B42
:104B28007DD801229A400C6804EA020C32EA040497
:104B3800F4D14C6804F00304013C012C8BD94A6879
:104B480002F00302032A09D0C4685D000322AA40C8
:104B580024EA02048A68AA402243C2604A6802F032
:104B68000302022A8ED004684FEA430E032202FA97
:104B78000EF224EA02044A6802F0030202FA0EF274
:104B8800224302604A6812F4403FC7D000220192D3
:104B9800264A546C44F480445464526C02F48042B3
:104BA8000192019A9C08A51C1E4A52F8255003F050
:104BB800030E4FEA8E0E0F2202FA0EF225EA0205C4
:104BC8001B4A90423FF474AF02F5806290421AD0BB
:104BD80002F58062904218D002F58062904216D0A9
:104BE80002F58062904214D002F58062904212D0A1
:104BF80002F58062904210D002F5806290423FF444
:104C080055AF082255E7012253E7022251E7032254
:104C18004FE704224DE705224BE7062249E702B099
:104C280070BD704700380140003C01400038024028
:104C3800000002400AB18161704709048161704730
:104C48002DE9F04383B0D0F8008001EBC10300EBFD
:104C580083039A6A5B6A9A4254D807460C469B1AA1
:104C680001EBC10200EB8202D2699A4200D31A46D4
:104C780002F103094FEA990915E006F103094FEA21
:104C8800990904EBC40507EB8505296ABB790093EC
:104C9800B3B2E2B2404602F0B6FD2B6A33442B624F
:104CA800AB6A3344AB6208EB441303F510639B69AA
:104CB8009BB24B4512D304EBC40307EB83039A6AF8
:104CC8005B6A9A420AD24BB19B1A04EBC40207EB07
:104CD8008202D6699E42D0D31E46CEE704EBC403B7
:104CE80007EB83077A6ABB6A9A420FD804F00F046D
:104CF8000122A240D8F8343823EA0203C8F834382D
:104D0800002000E0012003B0BDE8F0830020FAE7AE
:104D180030B583B000287AD00446056890F89534F9
:104D2800C3B1032384F89534B5F1A04F17D0206898
:104D380002F01AFB237C8DF80030231D0ECB20686F
:104D480002F051FA70B1022384F8953401252846FF
:104D580003B030BD80F8943405F016F9E1E700237C
:104D6800A371E4E70021206802F063FF0246B8B9A6
:104D780003462079984218D903EBC30104EB81015B
:104D8800012048750B75CB8500200876C86108623C
:104D980003EBC30104EB810148620133DBB2E8E7AE
:104DA800022384F895340125D1E7904217D902EB04
:104DB800C20304EB8303002183F8551283F85422BD
:104DC80083F85812C3F85C12C3F8601202EBC203EE
:104DD80004EB8303C3F864120132D2B2E5E7237C03
:104DE8008DF80030231D0ECB206802F013FB05461A
:104DF80020B1022384F895340125A8E700236374C1
:104E0800012384F89534206802F0D2FE9FE701253B
:104E18009DE7036890F89424012A1AD010B5044637
:104E2800012280F89424DA6812F0400F02D0427B05
:104E3800012A09D0206802F091FA206802F0AAFE3F
:104E4800002084F8940410BD9A6B42F480329A636F
:104E5800F0E702207047000070B504460D46006870
:104E6800066C00EB411303F530639A68A1790129B8
:104E780011D038498E4256D03DB905EBC50304EB35
:104E88008303D3F86432002B5ED0E9B2204605F0E4
:104E9800C7F8002070BD12F0080F09D02E498E42C5
:104EA800F7D912F4004FF4D04FF400429A60F0E7BB
:104EB80012F0200F02D020229A60EAE712F0280FA1
:104EC800E7D125498E4206D912F4004F03D04FF49A
:104ED80000429A60DDE705EBC50204EB8202D2F8D6
:104EE80074121B69C3F31203CB1AC2F868327DB976
:104EF80005EBC50204EB8202D2F864226AB105EB25
:104F0800C50204EB8202D2F860121944C2F860129A
:104F1800E9B2204605F084F8BBE704F29C4201217F
:104F280002F0C6FEF4E712F4004F03D04FF400423B
:104F38009A60AEE712F0200F01D020229A60E9B201
:104F4800204605F06DF8A4E704F29C42002102F027
:104F5800AFFE9AE70A31544F0A30544F38B5044629
:104F680003681D6C03EB4113D3F8081B0E4A9542E6
:104F780007D903F5306311F4004F02D04FF4004213
:104F88009A60204605F044F8074B9D4202D9A37960
:104F9800012B01D0002038BD04F29C420121206879
:104FA80002F086FEF6E700BF0A30544F90F89434BA
:104FB800012B0CD010B50446012380F894344174B9
:104FC800006802F0D7FD002084F8940410BD022088
:104FD800704738B505468C4611F0800F2BD101F08B
:104FE8000F0E0EEBCE04A40004F514740444211D26
:104FF8000EEBCE0E00EB8E0E00208EF855020CF054
:105008000F0C81F800C0C2F30A028A600B714A785B
:105018000AB1A1F81AC0022B1CD095F89434012BC0
:105028001BD0012385F89434286802F0D0FA0020B8
:1050380085F8940438BD01F00F0000EBC001890029
:1050480010312944043100EBC00005EB8000012435
:105058004475D4E700234B71DFE70220EAE710B577
:1050680004460A4611F0800F20D101F00F0000EB32
:10507800C0039B0003F514732344191D00EBC00003
:1050880004EB8000002380F8553202F00F020A700A
:1050980094F89434012B18D0012384F894342068B0
:1050A80002F0E2FA002084F8940410BD01F00F0029
:1050B80000EBC0039B0010332344191D00EBC00014
:1050C80004EB800001234375DFE70220EDE710B50C
:1050D800144601F00F0C0CEBCC01890001F514719A
:1050E800014404310CEBCC0E00EB8E0ECEF860229E
:1050F800CEF864320023CEF868328EF855328EF836
:1051080054C28279012A04D0006802F093FB00207F
:1051180010BDCEF87042F7E701F00F0101EBC101B5
:1051280000EB8100D0F86802704710B5144601F012
:105138000F0C0CEBCC0189001031014404310CEB4D
:10514800CC0E00EB8E0ECEF82020CEF824300023B3
:10515800CEF8283001238EF815308EF814C08279E5
:105168009A4204D0006802F065FB002010BDCEF81A
:105178003040F7E738B501F00F050279AA4238D375
:1051880004460B4611F0800F1FD101EBC1018900C5
:1051980001F514710144043103EBC30300EB8303ED
:1051A800002283F8552201238B700D7094F89434F3
:1051B800012B20D0012384F89434206802F07FFC6E
:1051C80085B1002084F8940438BD05EBC501890039
:1051D80010310144043105EBC50300EB83030122C0
:1051E8005A75E0E704F29C42A179206802F060FD5C
:1051F800E7E70120E8E70220E6E701F00F0302797C
:105208009A4230D310B5044611F0800F1ED103EB3B
:10521800C301890001F514710144043103EBC30291
:1052280000EB8202002082F8550200228A700B707F
:1052380094F89434012B18D0012384F8943420680E
:1052480002F06AFC002084F8940410BD03EBC3014B
:10525800890010310144043103EBC30200EB8202E0
:1052680001205075E1E7012070470220EDE708B5FD
:1052780011F0800F0CD101F00F0101EBC101890081
:1052880001F5147101440431006802F05DFA08BDAB
:1052980001F00F0101EBC101890010310144043113
:1052A800F2E72DE9F04F83B004460568284602F07E
:1052B800BCFC10B103B0BDE8F08F0646206802F0D0
:1052C80085FC0028F6D005F50067BB68C3F30D23FD
:1052D800C4F8D434206802F079FC10F0020F04D02E
:1052E8002268536903F002035361206802F06EFCE0
:1052F80010F0100F15D02268936923F01003936102
:10530800D5F8208008F00F0908F4F013B3F5802FC2
:105318004CD0B3F5402F6FD02268936943F0100347
:105328009361206802F052FC10F4002F76D12068B7
:1053380002F04CFC10F4802F40F0E080206802F06E
:1053480045FC0028C0F26181206802F03FFC10F49F
:10535800006F09D0BB6813F0010F40F06E8122681E
:10536800536903F400635361206802F02FFC10F4C2
:10537800805F40F06681206802F028FC10F4005F2E
:1053880040F0B381206802F021FC10F0080F40F0D3
:10539800C481206802F01AFC10F0800F00F0D78159
:1053A800AB6923F08003AB610126C0E147F6F073D7
:1053B80018EA030FB0D04FEA181A4FEAC90301934D
:1053C80009EBC90B04EB8B0BC8F30A12DBF860126C
:1053D800284602F051FBDBF86032CAF30A0A53444C
:1053E800CBF86032DBF86832019A4A4404EB820257
:1053F8005344C2F868328FE7082204F29C412846D9
:1054080002F03AFB09EBC90304EB8303D3F86822E3
:10541800C8F30A184244C3F868227DE7206802F0FE
:10542800D9FB8046B14635E005EB49130122C3F8A4
:10543800082B49462046FFF70FFD3CE005EB4913D2
:105448000822C3F8082B49462046FFF787FD35E0B8
:1054580009EBC90304EB830393F85732012B41D0BE
:1054680005EB49130222C3F8082B1AF0200F04D0C9
:1054780005EB49132022C3F8082B1AF4005F05D066
:1054880005EB49134FF40052C3F8082B09F1010941
:105498004FEA5808B8F1000F3FF449AF18F0010F70
:1054A800F4D05FFA89FB5946206802F0A3FB8246D4
:1054B80010F0010FB8D11AF0080FBFD11AF0100F71
:1054C80004D005EB49131022C3F8082B1AF0020F79
:1054D800CBD06B6913F0800FBAD07B6843F480633C
:1054E8007B60B5E709EBC90304EB8303002283F86B
:1054F80057225946204604F0E3FDB1E7206802F040
:1055080071FB8046B14625E05946204604F094FDDB
:105518001AF0080F04D005EB49130822C3F808292C
:105528001AF0100F04D005EB49131022C3F808290C
:105538001AF0400F04D005EB49134022C3F808299C
:105548001AF0020F40D11AF0800F59D109F1010960
:105558004FEA5808B8F1000F3FF4F0AE18F0010F09
:10556800F4D05FFA89FB5946206802F04CFB82466A
:1055780010F0010FCCD009F00F02012101FA02F25C
:105588007B6B23EA02037B6305EB4913C3F8081915
:10559800A3798B42B8D109EBC90304EB83031A6AD8
:1055A800D9690A441A62B9F1000FADD109EBC903F0
:1055B80004EB83035B6A002BA6D104F29C42012111
:1055C800206802F075FB9FE74946284601F0D2FEA5
:1055D80009EBC90304EB8303DB7D012B05D005EB45
:1055E80049130222C3F80829ADE709EBC90304EB04
:1055F80083030022DA755946204604F067FDEEE77A
:1056080049462046FFF71CFBA0E77B6823F001030F
:105618007B6094F8CC34012B08D0204604F04AFD76
:105628002268536903F0004353618DE6002184F832
:10563800CC14204600F059F9F2E7204604F022FD88
:105648008DE67B6823F001037B601021206801F060
:1056580091FE1AE005EB46134FF67F31C3F808199F
:10566800D3F8002922F40012C3F80029C3F8081B54
:10567800D3F8002B22F40012C3F8002BD3F8002B28
:1056880042F00062C3F8002B01362379B342E1D817
:10569800FB6943F00113FB61E37BDBB1D7F884308E
:1056A80043F00B03C7F884307B6C43F00B037B6437
:1056B800D5F8003823F4FE63C5F8003804F29C429C
:1056C800A179206802F0F4FA2268536903F4805340
:1056D800536150E67B6943F4005343F02B037B612D
:1056E8003B6943F00B033B61E2E7206802F0D2FA22
:1056F800206801F05BFFE071266800F011FC0146AC
:10570800E279304601F0B8FD204604F0A6FC226894
:10571800536903F40053536134E6204604F097FCC0
:105728002268536903F00803536132E6013623798E
:10573800B3420CD906EBC60304EB830393F8573244
:10574800012BF3D1F1B22046FFF791FDEEE7206877
:1057580002F03CFA10F4801F25D1206802F036FAD6
:1057680010F4001F58D0012326E001362379B342F4
:105778001BD905EB4613D3F8002906EBC60304EB47
:1057880083031B7E012BF0D1002AEEDA06EBC60359
:1057980004EB83030122DA7566F07F01C9B2204663
:1057A800FFF765FDE1E70126E0E72268536903F4A6
:1057B80080135361D1E7013322799A4227D905EB47
:1057C8004312D2F8001B03EBC30204EB820292F8E7
:1057D8005822012AEFD10029EDDAD4F8D42482EA3C
:1057E800114212F0010FE6D103EBC30204EB82026F
:1057F800012182F85712AA6942F08002AA616A69F7
:1058080012F0800FD7D17B6843F400737B60226865
:10581800536903F400135361206802F0D7F910F0BC
:10582800804F10D1206802F0D1F910F0040F3FF436
:1058380041AD23685D6815F0040F0DD122685368E7
:105848002B43536036E5204604F046FC2268536932
:1058580003F080435361E5E7204604F043FCEDE79D
:1058680090F89434012B14D010B50446012380F825
:10587800943411F0800F06D1006801F0A0FD0020DB
:1058880084F8940410BD01F00F01006801F072FD66
:10589800F5E70220704710B40468606A31B940EA3D
:1058A8000240A06200205DF8044B70478C46A36A52
:1058B80000EB1340002308E003F1400104EB8101F1
:1058C800496800EB11400133DBB20CF1FF318B4228
:1058D800F2D340EA02400CF13F0104EB810460601E
:1058E800E0E703685962002070477047002800F01D
:1058F800E08170B582B00446036813F0010F3BD015
:105908009F4B9B6803F00C03042B2CD09C4B9B688B
:1059180003F00C03082B21D06368B3F5803F4FD008
:10592800B3F5A02F52D0964B1A6822F480321A6031
:105938001A6822F480221A606368002B50D0FEF7A0
:10594800EFFF05468E4B1B6813F4003F14D1FEF79A
:10595800E7FF401B6428F5D90320B1E1884B5B6859
:1059680013F4800FD8D0864B1B6813F4003F03D084
:105978006368002B00F09F81236813F0020F54D056
:105988007F4B9B6813F00C0F3ED07D4B9B6803F058
:105998000C03082B33D0E368002B68D0794B012225
:1059A8001A60FEF7BDFF0546754B1B6813F0020F22
:1059B80054D1FEF7B5FF401B0228F5D903207FE13B
:1059C8006F4A136843F480331360B5E76C4B1A6869
:1059D80042F480221A601A6842F480321A60ABE7F7
:1059E800FEF79EFF0546664B1B6813F4003FC3D0C5
:1059F800FEF796FF401B6428F5D9032060E1604B51
:105A08005B6813F4800FC6D15D4B1B6813F0020F5F
:105A180003D0E368012B40F05081594A136823F002
:105A2800F803216943EAC1031360236813F0080FE0
:105A380042D063696BB3534B0122C3F8802EFEF743
:105A48006FFF05464E4B5B6F13F0020F34D1FEF724
:105A580067FF401B0228F5D9032031E1484A136843
:105A680023F0F803216943EAC1031360DDE7454BDE
:105A780000221A60FEF754FF0546414B1B6813F0DD
:105A8800020FD2D0FEF74CFF401B0228F5D90320A5
:105A980016E13C4B0022C3F8802EFEF741FF054675
:105AA800374B5B6F13F0020F06D0FEF739FF401B30
:105AB8000228F5D9032003E1236813F0040F77D0F7
:105AC8002F4B1B6C13F0805F33D1002301932C4BB9
:105AD8001A6C42F080521A641B6C03F080530193D5
:105AE800019B0125284B1B6813F4807F23D0A368F2
:105AF800012B34D0052B38D0214B1A6F22F001022C
:105B08001A671A6F22F004021A67A368002B3DD0A7
:105B1800FEF706FF06461A4B1B6F13F0020F46D11D
:105B2800FEF7FEFE801B41F288339842F3D903202A
:105B3800C6E00025D6E7144A136843F4807313605F
:105B4800FEF7EEFE0646104B1B6813F4807FCED19D
:105B5800FEF7E6FE801B0228F5D90320B0E0084ACC
:105B6800136F43F001031367CFE7054B1A6F42F039
:105B780004021A671A6F42F001021A67C5E700BFEC
:105B8800003802400000474200700040FEF7C8FE9F
:105B98000646524B1B6F13F0020F08D0FEF7C0FEEB
:105BA800801B41F288339842F3D9032088E0EDB98D
:105BB800A369002B00F08380484A926802F00C0227
:105BC800082A51D0022B17D0454B00221A66FEF73F
:105BD800A7FE0446414B1B6813F0007F42D0FEF736
:105BE8009FFE001B0228F5D9032069E03B4A136C8D
:105BF80023F080531364DBE7394B00221A66FEF763
:105C08008FFE0546354B1B6813F0007F06D0FEF764
:105C180087FE401B0228F5D9032051E0E369226A78
:105C28001343626A43EA8213A26A5208013A43EABA
:105C38000243E26A43EA0263284A5360284B01227E
:105C48001A66FEF76DFE0446244B1B6813F0007FAE
:105C580006D1FEF765FE001B0228F5D903202FE0C8
:105C680000202DE000202BE0012B2BD01B4B5B6884
:105C780003F48001E269914226D103F03F02216AD0
:105C88008A4223D1616A47F6C0721A40B2EB811F7B
:105C98001ED103F44031A26A5208013AB1EB024F17
:105CA80018D103F07063E26AB3EB026F14D10020DD
:105CB80006E001207047012002E0012000E00020FA
:105CC80002B070BD0120FBE70120F9E70120F7E7EA
:105CD8000120F5E70120F3E70120F1E70038024051
:105CE8000000474208B5334B9B6803F00C03042BB4
:105CF8005BD0082B5BD12F4B5A6802F03F025B68E0
:105D080013F4800F2CD02B4B5868C0F388104FEA3F
:105D1800401CBCEB000C6EEB0E0E4FEA8E1343EAF0
:105D28009C634FEA8C11B1EB0C0163EB0E03DB00B3
:105D380043EA5173C90011EB000C43F10003590207
:105D480000234FEA4C2041EADC51FEF739FA194B9F
:105D58005B68C3F3014301335B00B0FBF3F008BD9C
:105D6800144B5868C0F388104FEA401CBCEB000C79
:105D78006EEB0E0E4FEA8E1343EA9C634FEA8C11CA
:105D8800B1EB0C0163EB0E03DB0043EA5173C9006E
:105D980011EB000C43F10003990200234FEA8C2019
:105DA80041EA9C51FEF70CFAD1E70348D7E70348CC
:105DB800D5E700BF0038024000127A000024F40042
:105DC800002800F09B8070B50D4604464F4B1B68B9
:105DD80003F007038B4208D2CBB24C4A1370136806
:105DE80003F007038B4240F08B80236813F0020F07
:105DF80017D013F0040F04D0454A936843F4E053D6
:105E08009360236813F0080F04D0414A936843F461
:105E1800604393603E4A936823F0F003A1680B4304
:105E28009360236813F0010F32D06368012B21D0EF
:105E38009A1E012A25D9364A126812F0020F61D03B
:105E480033498A6822F0030213438B60FEF768FD2A
:105E580006462F4B9B6803F00C036268B3EB820F76
:105E680016D0FEF75DFD801B41F288339842F0D9C9
:105E7800032042E0264A126812F4003FE0D10120D4
:105E88003BE0234A126812F0007FD9D1012034E0A8
:105E98001E4B1B6803F00703AB4207D9EAB21B4B42
:105EA8001A701B6803F00703AB422DD1236813F067
:105EB800040F06D0164A936823F4E053E1680B43B5
:105EC8009360236813F0080F07D0114A936823F4EE
:105ED8006043216943EAC1039360FFF703FF0C4B5A
:105EE8009B68C3F303130B4AD35CD8400A4B186072
:105EF8000A4B1868FEF7C8FC002070BD01207047E7
:105F08000120FAE70120F8E70120F6E7003C02400B
:105F180000380240BCA20008000000200800002051
:105F2800014B1868704700BF0000002070B582B0B0
:105F3800044600230193006800F019FE054610B1DD
:105F4800284602B070BD206801F00AF938B901236B
:105F5800A364A36C012B0BD02E46284614E0002323
:105F6800A364206800F003FE0028F2D00546E7E7A6
:105F78000021206800F062FF0028EDD04FF0805526
:105F8800DEE7019B01330193019A4FF6FE739A42B3
:105F980013D896B90021206800F050FFE0B91249E3
:105FA800206801F029F80646C0B90021206800F0F1
:105FB800C9FDC30FE5D01E46E3E7019A4FF6FE730D
:105FC8009A420ED810F0804302D001236364B7E7E9
:105FD800002262641D46B3E70546B1E74FF08055DD
:105FE800AEE74FF08075ABE7000010C1F0B589B09F
:105FF80004460F46FEF794FC0646002300930193DF
:106008000821206800F070FE054610B1284609B046
:10601800F0BD216D0904206800F010FF0546002836
:10602800F4D14FF0FF3302930823039330230493F2
:1060380002230593002306930123079302A92068EE
:1060480000F083FD206800F029FF054658B1DDE720
:1060580000F055FD4DF825000135FEF761FC831B66
:10606800B3F1FF3F43D02068436B13F02A0F07D1E9
:10607800436B13F4001FEBD1436B13F4005FECD1B7
:10608800436B13F0080F29D1436B13F4007F25D11C
:10609800436B13F0020F24D1456B15F0200523D173
:1060A80040F23A538363019A130203F47F0343EAED
:1060B8000263110A01F47F410B4343EA12633B6018
:1060C800009A130203F47F0343EA0263110A01F4FE
:1060D8007F410B4343EA12637B6097E7082585639A
:1060E80094E70225856391E7202585638EE74FF0C5
:1060F80000458BE710B582B004460021009101915C
:10610800006800F01FFD10F0007F13D1694620469B
:10611800FFF76CFF80B9019B13F4802F0ED0216D1F
:106128000904206800F08AFE30B90221206800F0D6
:106138009DFE01E04FF4006002B010BD4FF080609A
:10614800FAE710B582B00446002100910191006879
:1061580000F0F8FC10F0007F13D169462046FFF7E5
:1061680045FF80B9019B13F4803F0ED0216D0904CF
:10617800206800F063FE30B90021206800F076FE48
:1061880001E04FF4006002B010BD4FF08060FAE704
:1061980070B581B104460E46016D0904006800F02F
:1061A80095FE054608B1284670BD0021206800F01C
:1061B800C9FC3060F7E74FF00065F4E72DE9F04FD0
:1061C80087B005460C4616469A46DDF84090FEF71D
:1061D800A7FB002C36D0804695F834305FFA83FB55
:1061E800012B40F007810023AB6306EB0A03EA6D3D
:1061F80093422ED8032385F834302B680022DA62C4
:106208006B6C012B00D076024FF0FF3300934FEAFE
:106218004A230193902302930223039300230493B8
:10622800012305936946286800F08FFCBAF1010F35
:1062380014D902232B633146286800F085FDA0B9E4
:10624800019F27E0AB6B43F00063AB634FF0010B9A
:10625800D6E0AB6B43F00073AB63D1E001232B6353
:106268003146286800F058FDE9E72B68664A9A63CA
:10627800AB6B0343AB63012385F8343000232B63F6
:10628800BEE0FEF74DFBA0EB0800484520D2B9F16F
:10629800000F1DD02868466B40F22A331E4026D1D5
:1062A800436B13F4004FECD0002FEAD0072EE8D848
:1062B800286800F024FC2070C0F307236370C0F343
:1062C8000743A370000EE0700434043F0136EDE785
:1062D8002B684D4A9A63AB6B43F00043AB630123D1
:1062E80085F8343000232B634FF0030B88E0436BB1
:1062F80013F4807F05D0BAF1010F02D96B6C032B20
:106308003AD12B685A6B12F0080F46D15A6B12F427
:10631800007F42D15A6B12F0020F4AD15A6B12F029
:10632800200F52D12868436B13F4001F59D0002F57
:1063380057D000F0E4FB2070C0F307236370C0F36C
:106348000743A370000EE0700434043FFEF7E8FA38
:10635800A0EB0800484502D2B9F1000FE2D12B6842
:10636800294A9A63AB6B43F00043AB63012385F87A
:10637800343000232B6343E000F02EFD0346002851
:10638800BFD02A6820499163AA6B1343AB630123EA
:1063980085F8343000232B6332E01B4A9A63AB6BD9
:1063A80043F00803AB63012385F8343000232B63E3
:1063B80026E0154A9A63AB6B43F00203AB630123F3
:1063C80085F8343000232B631AE00F4A9A63AB6BCD
:1063D80043F02003AB63012385F8343000232B639B
:1063E8000EE040F23A538363012385F834304FF0CE
:1063F800000B05E0AB6B43F00053AB634FF0010BB0
:10640800584607B0BDE8F08FFF0540002DE9F04F72
:106418008BB005460C4616469A46DDF85090FEF7B6
:106428007FFA002C38D0074695F834305FFA83FBA2
:10643800012B40F0E8800023AB6306EB0A03EA6D0A
:10644800934230D8032385F834302B680022DA626F
:106458006B6C012B00D076024FF0FF3304934FEAA8
:106468004A23059390230693002307930893012357
:10647800099304A9286800F068FBBAF1010F17D93D
:1064880020232B633146286800F08EFC0190019B85
:10649800B3B9DDF8148028E0AB6B43F00063AB635D
:1064A8004FF0010BB5E0AB6B43F00073AB63B0E0AA
:1064B80010232B633146286800F05EFC0190E6E764
:1064C8002B68564A9A63AB6B019A1343AB6301235B
:1064D80085F8343000232B639BE0FEF721FAC01BBC
:1064E800484528D2B9F1000F25D02868466B40F2FC
:1064F8001A331E402ED1436B13F4804FEDD0B8F100
:10650800000FEAD0072EE8D823780393627843EA8D
:1065180002230393A27843EA02430393E27843EA0F
:10652800026303930434A8F1040803A9286800F05F
:10653800E9FA0136E6E72B68384A9A63AB6B019AA9
:106548001343AB63012385F8343000232B634FF0EA
:10655800030B5EE0436B13F4807F05D0BAF1010FA3
:1065680002D96B6C032B1CD12B685A6B12F0080FE5
:1065780028D15A6B12F4007F24D15A6B12F0020F03
:106588002CD15A6B12F0100F34D0244A9A63AB6B9B
:1065980043F01003AB63012385F8343000232B63E9
:1065A80037E000F019FC03460028DDD02A681B49B3
:1065B8009163AA6B1343AB63012385F8343000233E
:1065C8002B6326E0154A9A63AB6B43F00803AB6371
:1065D800012385F8343000232B631AE00F4A9A63AD
:1065E800AB6B43F00203AB63012385F8343000231F
:1065F8002B630EE040F23A529A63012385F8343057
:106608004FF0000B05E0AB6B43F00053AB634FF06A
:10661800010B58460BB0BDE8F08F00BFFF054000E6
:106628000346426E920F0A70426EC2F383624A704A
:1066380090F8672002F003028A7090F86620CA700A
:1066480090F865200A7190F864204A71826E120DE4
:10665800CA80B0F86A2002F00F020A72826EC2F392
:10666800C0324A72826EC2F380328A72826EC2F37C
:106678004032CA72826EC2F300320A7300224A7331
:10668800426C002A40F08680806E40F6FC7202EA76
:106698008002D86E42EA90720A61DA6EC2F3C26270
:1066A8000A7593F86F2002F007024A75DA6EC2F392
:1066B80042528A75DA6EC2F38242CA75DA6EC2F342
:1066C800C2320A760A6901325A65087E00F007006C
:1066D800023082405A6591F808C00CF00F0C012076
:1066E80000FA0CF09865400A00FB02F2DA654FF4F4
:1066F80000721A66DA6EC2F380324A76DA6EC2F334
:10670800C6128A76DA6E02F07F02CA761A6FD20F44
:106718000A771A6FC2F341724A771A6FC2F382621C
:106728008A771A6FC2F38352CA771A6FC2F340523C
:1067380081F82020002081F82100B3F8722002F0AF
:10674800010281F822201A6FC2F3C03281F8232097
:106758001A6FC2F3803281F824201A6FC2F34032D4
:1067680081F825201A6FC2F3003281F826201A6FAB
:10677800C2F3812281F827201A6FC2F3012281F81F
:1067880028201B6FC3F3460381F82930012381F8C1
:106798002A307047012A11D1826E120402F47C1249
:1067A800B0F86E0002430A610A69013292025A6522
:1067B800DA654FF400729A651A669BE70268054924
:1067C8009163826B42F080528263012083F8340027
:1067D800704700BFFF05400070B590B00446012324
:1067E800ADF81230006800F096F900286CD0636CA0
:1067F800032B45D1636C032B5DD1636C032B1DD038
:10680800BDF8121021650904206800F0BAFB05469E
:1068180000285BD10021206800F094F9606604210B
:10682800206800F08FF9A0660821206800F08AF936
:10683800E0660C21206800F085F9206704212068B3
:1068480000F080F9000DE06405A92046FFF7E8FE96
:1068580000283ED1226D12040023206800F0D6FAE9
:10686800054698BB234653F8106B93E807008DE85C
:106878000700043494E80E00304600F027F925E0BC
:10688800206800F069FB054600BB0021206800F085
:1068980059F960670421206800F054F9A0670821BD
:1068A800206800F04FF9E0670C21206800F04AF9F1
:1068B800C4F880009EE70DF11201206800F006FC84
:1068C8000546002899D001E04FF08065284610B0B1
:1068D80070BD4FF08055F9E770B58AB004460025C1
:1068E80004950595069507950895762309930AABAF
:1068F80013E907008DE8070004AB0ECB206800F011
:10690800E5F81B4EC6F8A050206800F000F90123F6
:10691800C6F8A0300220FEF709F82046FFF706FB6C
:1069280040B10246012084F83400A36B1343A363EB
:106938000AB070BD2046FFF74FFF024630B1012074
:1069480084F83400A36B1343A363F1E74FF4007199
:10695800206800F0C9F908B90020E9E7236805496B
:106968009963A36B0343A363012084F83400DFE732
:1069780000802542FF054000A8B110B5044690F8F4
:10698800343063B1032384F834302046FFF7A4FF82
:1069980058B9A0632063012384F8343010BD03770D
:1069A800FDF79EFEEEE7012070470120F6E70000A4
:1069B80030B58BB004460D46032380F83430436C61
:1069C800032B1CD0B1F5805F08D0B1F5006F0AD059
:1069D80079B1836B43F00063836314E0836B43F006
:1069E800805383630FE0FFF785FBA36B0343A36327
:1069F80009E0FFF7A6FBA36B0343A36303E0836BE4
:106A080043F080538363A36BC3B12368174A9A6327
:106A1800012584F834504FF40071206800F064F9BF
:106A280030B1236811499963A36B0343A36301251C
:106A3800012384F8343028460BB030BD63680493D2
:106A4800A3680593E3680693079563690893A369A8
:106A580009930AAB13E907008DE8070004AB0ECBD6
:106A6800206800F033F80025D5E700BFFF05400097
:106A780010B582B004460023019301A9FFF788FBF3
:106A880010B1A36B0343A3630198C0F3432002B082
:106A980010BD00000B4B1B680B4AA2FB03235B0ACB
:106AA80041F2883202FB03F31A46013B3AB1426BCA
:106AB80012F0800FF8D0C5238363002070474FF091
:106AC8000040704700000020D34D621084B00DF1E3
:106AD800040C8CE80E000B461343039A1343049AE4
:106AE8001343059A1343069A1343426822F4FD425E
:106AF80022F07F0213434360002004B07047D0F8AF
:106B0800800070470B68C0F880300020704703236E
:106B1800036000207047006800F0030070470B68AE
:106B280083604B688A681343CA6813430A6913432E
:106B3800C2686FF30B021343C360002070470069FB
:106B4800C0B270471430405870470B6843624B68B6
:106B580083628B68CA6813430A6913434A691343FB
:106B6800C26A22F0F7021343C3620020704710B5CF
:106B780086B00446002301930293039304934FF4D1
:106B88008063059301A9FFF7CAFF2046FFF782FF3C
:106B980006B010BD38B504460D46504B1B68504929
:106BA800A1FB03135B0A03FB02F21346013A002B15
:106BB8005DD0636B13F0450FF7D013F4006FF4D179
:106BC800636B13F0040F06D1636B13F0010F05D04C
:106BD8000120A0634DE00420A0634AE0C523A3631D
:106BE8002046FFF7ACFFA84201D0012041E0002178
:106BF8002046FFF7A7FF03463A481840C8B3002BC2
:106C080038DB13F0804F38D113F0005F37D113F021
:106C1800805F36D113F0006F36D113F0806F36D114
:106C280013F0807F36D113F4000F36D113F4800FA0
:106C380036D113F4001F36D113F4801F36D113F464
:106C4800802F36D113F4003F36D113F4803F36D16C
:106C580013F4004F36D113F4804F36D113F4005F8C
:106C680036D113F0080F36D04FF4000001E04FF092
:106C7800004038BD4FF00070FBE74020F9E7802066
:106C8800F7E74FF48070F4E74FF40070F1E74FF442
:106C98008060EEE74FF40060EBE74FF48050E8E7E0
:106CA8004FF40050E5E74FF48040E2E74FF400402E
:106CB800DFE74FF40030DCE74FF48020D9E74FF4EA
:106CC8000020D6E74FF48010D3E74FF40010D0E748
:106CD8004FF48000CDE74FF48030CAE70000002071
:106CE800D34D621008E0FFFD30B587B0044601912E
:106CF8001025029540230393002304934FF48063E7
:106D0800059301A9FFF70BFF41F288322946204677
:106D1800FFF740FF07B030BD30B587B0044601919A
:106D28001125029540230393002304934FF48063B5
:106D3800059301A9FFF7F3FE41F288322946204660
:106D4800FFF728FF07B030BD30B587B00446019182
:106D58001225029540230393002304934FF4806384
:106D6800059301A9FFF7DBFE41F288322946204648
:106D7800FFF710FF07B030BD30B587B0044601916A
:106D88001825029540230393002304934FF480634E
:106D9800059301A9FFF7C3FE41F288322946204630
:106DA800FFF7F8FE07B030BD30B587B00446019153
:106DB8001925029540230393002304934FF480631D
:106DC800059301A9FFF7ABFE41F288322946204618
:106DD800FFF7E0FE07B030BD30B587B004460023AA
:106DE80001930C2502954022039204934FF480638B
:106DF800059301A9FFF793FE034A29462046FFF7AA
:106E0800C9FE07B030BD00BF00E1F50530B587B059
:106E18000446019207250295402303930023049317
:106E28004FF48063059301A9FFF779FE41F2883298
:106E380029462046FFF7AEFE07B030BD30B587B013
:106E480004460191372502954023039300230493B8
:106E58004FF48063059301A9FFF761FE41F2883280
:106E680029462046FFF796FE07B030BD30B587B0FB
:106E780004460191062502954023039300230493B9
:106E88004FF48063059301A9FFF749FE41F2883268
:106E980029462046FFF77EFE07B030BD30B587B0E3
:106EA800044600230193332502954022039204935C
:106EB8004FF48063059301A9FFF731FE41F2883250
:106EC80029462046FFF766FE07B030BD30B587B0CB
:106ED800044601910D250295402303930023049352
:106EE8004FF48063059301A9FFF719FE41F2883238
:106EF80029462046FFF74EFE07B030BD0146144B29
:106F08001B68144AA2FB03235B0A41F2883202FB86
:106F180003F31A46013BBAB14A6B12F0450FF8D099
:106F280012F4006FF5D14B6B13F0040F06D1486BC8
:106F380010F0010005D1C5238B63704704208863D6
:106F480070470120886370474FF00040704700BFCA
:106F580000000020D34D621010B586B0044600230F
:106F6800019302220292C022039204934FF4806399
:106F7800059301A9FFF7D3FD2046FFF7BFFF06B031
:106F880010BD10B586B00446019109230293C023B1
:106F98000393002304934FF48063059301A9FFF73B
:106FA800BEFD2046FFF7AAFF06B010BD0146104BF4
:106FB8001B68104AA2FB03235B0A41F2883202FBDA
:106FC80003F31A46013B82B14A6B12F0450FF8D021
:106FD80012F4006FF5D1486B10F0040002D1C523FC
:106FE8008B6370470420886370474FF000407047F8
:106FF80000000020D34D621010B586B0044641F061
:10700800004141F480110191292302934023039305
:10701800002304934FF48063059301A9FFF77FFDD4
:107028002046FFF7C3FF06B010BD0000F8B50546BF
:107038000E461746234B1B68234AA2FB03235B0A11
:1070480041F2883202FB03F31A46013B8AB36C6BA8
:1070580014F0450FF8D014F4006FF5D16B6B13F0F2
:10706800040F06D16B6B13F0010F05D00120A86344
:1070780021E00420A8631EE02846FFF760FDB04227
:1070880001D0012017E0C523AB6300212846FFF794
:1070980059FD034610F4604008D013F4804F0BD11B
:1070A80013F4004F0BD04FF4805004E01B0C3B80CE
:1070B80001E04FF00040F8BD4FF40050FBE74FF4FB
:1070C8008030F8E700000020D34D621070B586B01C
:1070D80004460D460023019303260296402203929C
:1070E80004934FF48063059301A9FFF718FD2A461E
:1070F80031462046FFF79AFF06B070BD0146164B91
:107108001B68164AA2FB03235B0A41F2883202FB82
:1071180003F31A46013BE2B14A6B12F0450FF8D06F
:1071280012F4006FF5D14B6B13F0040F0BD14B6BBE
:1071380013F001030AD1486B10F040000BD0402235
:107148008A63184670470420886370470120886363
:1071580070474FF00040704700000020D34D621088
:1071680010B586B004464FF4D573019308230293F3
:1071780040230393002304934FF48063059301A9EC
:10718800FFF7CDFC2046FFF7B9FF06B010BD82B06F
:1071980000230193019B01330193019BB3F1706FAD
:1071A8001CD80369002BF5DA0A23019302E0019B3E
:1071B800013B0193019B002BF9D1036943F00103C3
:1071C8000361019B01330193019BB3F1706F08D8F0
:1071D800036913F0010FF4D1002000E0032002B08E
:1071E80070470320FBE784B010B5044603A880E885
:1071F8000E009DF81130012B21D1A36B23F48033AD
:10720800A363E36823F4840323F04003E360E368A3
:1072180023F44013E3609DF81830012B0AD0204670
:10722800FFF7B5FF9DF80E30012B1CD0BDE81040CC
:1072380004B07047E36843F48013E360EFE7E36862
:1072480043F04003E3602046FFF7A1FF9DF81530A7
:1072580023B9A36B43F48033A363E3E7A36B23F45D
:107268008033A363DEE7A36843F00603A360A36843
:1072780043F02003A360D9E7022A0AD00922C36891
:1072880023F47053C360C36843EA8223C3600020B9
:107298007047234B0B44234A93422FD9224B0B446C
:1072A800224A93422CD9A1F57403A3F51053204A1E
:1072B800934227D9A1F18373A3F5E7431D4A93426B
:1072C80022D31D4B0B441D4A93421FD91C4B0B4420
:1072D8001C4A93421CD31C4B0B441C4A934219D39F
:1072E800A1F1B773A3F55853194A934214D3194B14
:1072F8000B44194A934211D20722C0E70F22BEE776
:107308000E22BCE70D22BAE70C22B8E70B22B6E73B
:107318000A22B4E70922B2E70822B0E70622AEE75C
:10732800405327FFFF340C00401E1BFF3F420F0055
:107338007F4F120020D6130060B6E5FE5FE316000B
:1073480000D3CEFE40771B00C05BB3FEC091210086
:1073580020753800E05459FEE09C4100836843F0F2
:107368000103836000207047836823F00103836072
:107378000020704782B000230193019B01330193E1
:10738800019BB3F1706F15D80369002BF5DA002360
:107398000193890141F020010161019B01330193AF
:1073A800019BB3F1706F08D8036913F0200FF4D173
:1073B800002000E0032002B070470320FBE782B002
:1073C80000230193019B01330193019BB3F1706F7B
:1073D80013D80369002BF5DA002301931023036106
:1073E800019B01330193019BB3F1706F08D80369C6
:1073F80013F0100FF4D1002000E0032002B0704712
:107408000320FBE7D0F800381943C0F80018002023
:107418007047000084B0F8B5044607A880E80E005D
:10742800002306E003F1400204EB820200215160D0
:1074380001330E2BF6D99DF8266006BBD4F8043824
:1074480043F00203C4F80438A36B43F40013A363A6
:10745800A36B23F40023A363A36B23F48023A36308
:107468000023C4F8003E9DF82130012B15D19DF86A
:107478001F306BB900212046FFF7C4FF11E0A36B52
:1074880023F40013A363A36B43F40023A363E7E788
:1074980001212046FFF7B6FF03E003212046FFF74E
:1074A800B1FF10212046FFF765FF054600B1012511
:1074B8002046FFF784FF00B1012504F5006C002386
:1074C800CCF81030CCF81430CCF81C300DE04FF06C
:1074D8009040C2F8000902E00020C2F8000900222A
:1074E8000A614FF67F328A6001339DF81C10994279
:1074F8000ED904EB431202F51061D2F800090028F6
:10750800EADA002BE3D14FF00060C2F80009E6E7A1
:1075180000230AE0BBB14FF09047C2F8007B00227D
:1075280002614FF67F3282600133994210D904EB31
:10753800431202F53060D2F8007B002FEADB002707
:10754800C2F8007BEBE74FF00067C2F8007BE6E784
:10755800DCF8103023F48073CCF810300023A361DA
:107568006FF0804363619DF81E301BB9A36943F037
:107578001003A361A2690C4B1343A3619DF8223049
:107588001BB1A36943F00803A361012E04D0284668
:10759800BDE8F84004B07047A36943F0804343F066
:1075A8000403A361F3E700BF00383C80D0F8083833
:1075B80003F00603022B04D0062B04D02BB90020BD
:1075C800704702207047022070470F20704710B59F
:1075D80091F800C04B78012B23D000F5006ED0F84D
:1075E8001C380CF00F040122A24043EA0243C0F801
:1075F8001C3800EB4C10D0F8003B13F4004F0ED1B0
:10760800D0F8003B8A68C2F30A02097942EA81424B
:10761800134343F0805343F40043C0F8003B002079
:1076280010BDD0F81C280CF00F0E03FA0EF39BB215
:107638001343C0F81C3800EB4C10D0F8003913F491
:10764800004FECD1D0F800398A68C2F30A020979F0
:1076580042EA814242EA8C52134343F0805343F496
:107668000043C0F80039DAE730B40B784A78012AC9
:1076780026D000EB4313D3F8002B002A52DBD0F8B6
:107688003C480A7802F00F024FF0010C0CFA02F2A3
:1076980024EA0242C0F83C28D0F81C28097801F0F6
:1076A8000F010CFA01FC22EA0C42C0F81C28D3F89E
:1076B800001B234A0A40C3F8002B002030BC704747
:1076C80000EB4313D3F80029002A1EDBD0F83C58FE
:1076D8000A7802F00F02012404FA02F292B225EAB3
:1076E8000202C0F83C28D0F81C28097801F00F01E4
:1076F8008C40A4B222EA0402C0F81C28D3F800196E
:10770800104A0A40C3F80029D7E7D3F8002942F005
:107718000062C3F80029D3F8002942F08042C3F878
:107728000029D3E7D3F8002B42F00062C3F8002BFE
:10773800D3F8002B42F08042C3F8002B9FE700BF2C
:107748000078F3EF007833EC10B483B002460023DE
:107758000193487801280BD00B7802EB4313D3F838
:10776800000B00282DDB002003B05DF8044B7047A8
:107778000B7802EB4313D3F80049002C01DB0020FF
:10778800F2E7D3F8004944F00064C3F800490B78E5
:1077980002EB4313D3F8004944F08044C3F800498E
:1077A800019B01330193019C42F210739C42DBD888
:1077B8000B7802EB4313D3F80039002BF0DB0020E1
:1077C800D2E7D3F8000B40F00060C3F8000B0B7849
:1077D80002EB4313D3F8000B40F08040C3F8000BD2
:1077E800019B01330193019842F21073984208D823
:1077F8000B7802EB4313D3F8003B002BF0DB00209F
:10780800B2E70120B0E710B59DF8084084B903330A
:107818004FEA930E4FF0000C08E000EB023303F53B
:10782800805351F8044B1C600CF1010CF445F4D35F
:10783800002010BDF0B583B00C784B78012B2DD00B
:1078480000EB441C0CF530631D696FF312051D61D4
:107858001D696FF3DC451D61002C40F0CE800C697A
:107868000CB18C680C618C680C621D69C4F312043D
:107878002C431C611C6944F400241C61012A00F09B
:10788800DF800B79012B00F0E180DCF8003B43F04E
:107898000443CCF8003B002003B0F0BD0B6973BB78
:1078A80000EB4413D3F810596FF3DC45C3F81059B3
:1078B800D3F8105945F40025C3F81059D3F81059D6
:1078C8006FF31205C3F81059012A54D000EB441481
:1078D800D4F8003943F00443C4F800390B79012B7C
:1078E80072D00B69002BD6D0D0F83438097801F063
:1078F8000F0101228A401343C0F83438CBE700EB6C
:10790800441303F510631D696FF312051D611D69AA
:107918006FF3DC451D6184B90E698D68AE4200D9EC
:107928000D611D6945F400251D611D690E69C6F3C9
:10793800120C45EA0C051D61C6E70D698E683544D1
:10794800013DB5FBF6F51E691FFA85FC494F07EAAC
:10795800C54535431D610D79012DE6D11D6925F019
:10796800C0451D611D694FEA4C7C0CF0C04C45EACE
:107978000C051D61D9E7CB691BB100EB4412C2F8B5
:1079880014390B79012B08D000EB4414D4F80039D2
:1079980043F00443C4F800397DE7D0F8083813F4FD
:1079A800807F08D100EB4412D2F8003943F000532D
:1079B800C2F80039E8E700EB4412D2F8003943F086
:1079C8008053C2F80039DFE7D0F8083813F4807F15
:1079D8000CD1D4F8003943F00053C4F800390092B0
:1079E8000B8A0A78C968FFF70EFF54E7D4F8003904
:1079F80043F08053C4F80039F1E70C6954B91C69A5
:107A08008D68C5F312052C431C611C6944F40024DD
:107A18001C6133E78D682C44013CB4FBF5F4A4B237
:107A280004FB05F50D621D69124E06EAC4442C4399
:107A38001C611C690D6AC5F312052C431C611DE706
:107A4800CA68002A3FF41DAF5A611AE7D0F808380F
:107A580013F4807F06D1DCF8003B43F00053CCF8E8
:107A6800003B12E7DCF8003B43F08053CCF8003BC6
:107A78000BE700BF0000F81F10B5844608464FEA20
:107A8800920E02F00302002305E00CF5805109680C
:107A980040F8041B01337345F7D37AB10CF5805CC9
:107AA800DCF800400021CBB2DB0024FA03F300F835
:107AB800013B0131013A92B2002AF4D110BD0B7892
:107AC8004A78012A14D000EB4310D0F8002B002A82
:107AD80006DB2BB1D0F8003B23F08043C0F8003B15
:107AE800D0F8003B43F40013C0F8003B0020704777
:107AF80000EB4310D0F80029002A06DB2BB1D0F8A0
:107B0800003923F08043C0F80039D0F8003943F435
:107B18000013C0F80039E9E70B784A78012A0ED03B
:107B280000EB4310D0F8003B23F40013C0F8003BEF
:107B38000B79023BDBB2012B15D90020704700EB13
:107B48004310D0F8003923F40013C0F800390B793A
:107B5800023BDBB2012BF0D8D0F8003943F0805358
:107B6800C0F80039E9E7D0F8003B43F08053C0F88B
:107B7800003BE2E7D0F8003823F4FE63C0F8003891
:107B8800D0F80038090101F4FE610B43C0F8003851
:107B980000207047D0F8003E23F00303C0F8003EF1
:107BA800D0F8043823F00203C0F8043800207047E6
:107BB800D0F8003E23F00303C0F8003ED0F80438A4
:107BC80043F00203C0F80438002070474269806916
:107BD80010407047D0F8183800F50060C0691840A8
:107BE800000C7047D0F8183800F50060C0691840DC
:107BF80080B2704700EB4111D1F8082B00F5006006
:107C0800406910407047D0F81028D0F8343801F097
:107C18000F0C23FA0CF3DB01DBB2134300EB41102A
:107C280000F51060806818407047406900F0010056
:107C3800704738B50546C36823F0C043C3600129BF
:107C480013D019BBC36843F08043C36000240A20E3
:107C5800FCF76CFE0A342846FFF7E7FF08B1C72C8B
:107C6800F5D9C82C14D0002038BDC36843F00053A0
:107C7800C36000240A20FCF759FE0A342846FFF79F
:107C8800D4FF0128EDD0C72CF4D9EAE70120EBE7AF
:107C98000120E9E7D0F800396FF30A03C0F800398A
:107CA800D0F8043843F48073C0F8043800207047D3
:107CB80010B4046C154B9C4203D9D0F8003B002B40
:107CC80016DB0024C0F8104BD0F8104B44F4002405
:107CD800C0F8104BD0F8104B44F01804C0F8104B03
:107CE800D0F8104B44F0C044C0F8104B012903D021
:107CF80000205DF8044B7047C0F8142BD0F8003B07
:107D080043F08023C0F8003BF2E700BF0A30544F2D
:107D18000A230380004870471000002070B504460D
:107D280044F2840002F034FA80B3D4F8D432B03389
:107D380044F82300C4F8BC02237C7BBB284D4FF4D5
:107D4800007302222978204602F039FA2B7803F0D2
:107D58000F0303EB830304EB8303012583F86351CB
:107D6800204E4FF4007302223178204602F027FAA1
:107D7800337803F00F0303EB830304EB830383F8E7
:107D88002350204600F0C8F9002070BDD4F8D43242
:107D9800B033002244F823200220F6E7104D402398
:107DA80002222978204602F00AFA2B7803F00F0302
:107DB80003EB830304EB8303012583F86351094E26
:107DC800402302223178204602F0F9F9337803F093
:107DD8000F0303EB830304EB830383F82350D0E7FB
:107DE8000C0000200D00002070B504461A4D2978BB
:107DF80002F0F0F92B7803F00F0303EB830304EB95
:107E08008303002583F86351144E3178204602F02D
:107E1800E1F9337803F00F0303EB830304EB8303E7
:107E280083F82350D4F8D432B03354F8233083B1D4
:107E3800204600F0C5F9D4F8D432B03354F8230002
:107E480002F0AAF9D4F8D432B03344F82350C4F875
:107E5800BC52002070BD00BF0C0000200D000020A7
:107E68002DE9F04182B0D0F8D42202F1B00350F8E5
:107E780023700023ADF80630002F00F08F800446F1
:107E88000D460B7813F060063BD0202E7FD1497841
:107E9800FE2906D0FF2923D0294601F0CBFB032673
:107EA80078E0698811B9E988012905D02946204672
:107EB80001F0C0FB03266DE013F0800FF6D0B0325E
:107EC80000EB820253689B699847022828BF02206A
:107ED800386001223946204601F029FF002659E082
:107EE8006A8842B9EA8832B913F0800F03D100F0EA
:107EF80045F900264EE02946204601F09BFB032663
:107F080048E091F80180B8F10B0F3CD8DFE808F0A1
:107F1800062D3B3B3B3B3B3B3B3B152290F89C32C1
:107F2800032B03D001F086FB032633E002220DF178
:107F3800060101F0FCFE46462CE090F89C32032B2B
:107F480003D001F077FB032624E00122391D01F05C
:107F5800EEFE1FE090F89C32032B02D18B787B60F9
:107F680018E001F067FB032614E090F89C32032B1D
:107F780010D14B8873B9097902F034F92979204670
:107F880000F0F2F906E001F055FB032602E001F0EB
:107F980051FB0326304602B0BDE8F0810326F9E71D
:107FA80008B500F03FF9002008BD08B500F0BEF99B
:107FB800002008BD70B505460B4E8121304601F002
:107FC800FCFA04460121304601F0F7FA1CB1002200
:107FD80022710222627118B10022027102224271DA
:107FE80020232B80004870BD1C00002070B505467A
:107FF8000B4E8121304601F0E0FA0446012130465B
:1080080001F0DBFA1CB1402222710022627118B122
:10801800402202710022427120232B80004870BD4B
:108028001C00002070B505460B4E8121304601F03A
:10803800C4FA04460121304601F0BFFA1CB14022BF
:1080480022710022627118B140220271002242712D
:1080580020232B80004870BD1C00002039B1D0F8C7
:10806800D432B03300EB8300416000207047032016
:108078007047000038B51346D0F8D42202F1B00C8E
:1080880050F82C40ACB104F5804CDCF81820DCF832
:108098003850ED1ACCF8385000258CF83C5004259F
:1080A8002572934228BF13460A460249097802F00E
:1080B800B9F838BD0D00002038B5D0F8D432B03347
:1080C80050F8235095B1044605F580431B7F2BB922
:1080D80005F580439B690BB16B7A43B10C4B19785A
:1080E800204602F087F86B7A022B05D038BD094B81
:1080F800197802F07FF8F1E7054B1978204602F06D
:1081080079F8044B1978204602F074F8EEE700BFBE
:108118000D0000200C00002070B5D0F8D432B03328
:1081280050F823502DB3044600202872687205F5D4
:10813800804383F8610083F8600083F86200D4F814
:10814800D432B03304EB83035B681B689847094E4D
:108158003178204602F046F8074B1978204602F09D
:1081680041F81F2305F5804210323178204602F08D
:1081780061F870BD0C0000200D00002070B5D0F82B
:10818800D432B03350F82350ADB1044600232B72DB
:1081980001236B72084B197802F034F8074E3178D6
:1081A800204602F02FF81F2305F58042103231785F
:1081B800204602F03FF870BD0D0000200C000020A2
:1081C800D0F8D432B03350F823300BB100221A72F1
:1081D8007047000038B5D0F8D432B03350F8235087
:1081E800CDB1044605F580430B4A1A6383F83C1069
:1081F80000232B720D2305F5804230320749097898
:1082080002F010F81F2305F580421032044909785E
:10821800204602F00FF838BD555342530D00002098
:108228000C000020D0F8D432B03350F82320DAB153
:1082380010B50446137A022B08D006D3033BDBB2F1
:10824800012B02D80021FFF7C5FF10BD02F58043BE
:108258001A461F32597F00F037FF0028F5DA01214E
:108268002046FFF7B7FFF0E77047000038B5D0F8B1
:10827800D432B03350F82350FDB1044605F580439D
:108288005A695A639A699A63264B197801F07AFFFA
:108298001F2805D105F580431A69234B9A420DD052
:1082A80005F5804120230522497F204600F052F938
:1082B80002236B722046FFF7FFFE38BD05F58043A9
:1082C800597F2B689942EBD805F580439B7F002B9B
:1082D800E6D0102BE4D805F580421F32204600F086
:1082E800F3FE00280CDB2B7A013BDBB2022BE4D92E
:1082F800EA688AB105F110012046FFF7BBFEDCE70A
:108308002B7A052B03D02046FFF7D6FED5E70121AF
:108318002046FFF75FFFD0E700212046FFF75AFF0E
:10832800CBE700BF0C00002055534243D0F8D432AD
:10833800B03350F82320B2B110B50446137A7BB19C
:10834800012B0FD102F580431A461F32597F00F0E6
:10835800BBFE002806DA01212046FFF73BFF01E0BB
:10836800FFF784FF10BD7047D0F8D432B03350F80F
:108378002330BBB110B504465B7A022B08D011F04C
:10838800800F04D0012B02D00121FFF723FF10BD7D
:10839800054B197801F02EFF044B1978204601F09F
:1083A80029FFF4E7704700BF0D0000200C000020F3
:1083B800D0F8D432B03350F823307BB112793AB9BF
:1083C80003F58042002182F862100020D8607047CF
:1083D80003F58042012182F86210F6E74FF0FF3082
:1083E8007047844658B1C26005E0013A92B2885C91
:1083F8000CEB02031874002AF7D1002070474FF0E5
:10840800FF30704770B503460846D3F8D44204F1EC
:10841800B00153F82150DDB1164603EB81035B68C8
:10842800DB68984770B10C4A937863F07F039370C8
:108438003279042A00D9042207492846FFF7D1FFD8
:10844800002070BD054A937803F07F039370EFE72F
:108458004FF0FF30F5E700BF7C00002074000020DB
:1084680070B503460846D3F8D44204F1B00153F876
:108478002150DDB1164603EB81035B68DB68984742
:1084880070B10C4AD37863F07F03D370327A082A2C
:1084980000D9082207492846FFF7A3FF002070BD2E
:1084A800044AD37803F07F03D370EFE74FF0FF302F
:1084B800F5E700BF7400002008B5D0F8D432B03317
:1084C80050F82300D378127952EA032205D0082AFB
:1084D80000D908220249FFF784FF002008BD00BF29
:1084E800A401002008B5D0F8D432B03350F82300E6
:1084F80050B3174900230B604B608B60CB600B6156
:108508004B61026802F1010C4FEACC0ECCF34752E2
:108518000A70CCF347324A70CCF3471C81F802C08A
:1085280081F803E005E0D9000931094A53540133C1
:10853800DBB201688B42F6D90EF1080292B2044907
:10854800FFF74FFF002008BD4FF0FF30FBE700BFEB
:10855800AC010020D0F8D412B03150F82100C0B1DD
:1085680000B500F5804E9EF8611001F6080C00F881
:108578003C2000EBCC021371002353714B1CDBB27F
:108588008EF86130042B00D000BD00238EF86130D6
:10859800FAE7704770B5D0F8D43203F1B00250F85A
:1085A80022509DB304460E4605F58042926982B971
:1085B80005F5804292F86220022A14D0B03300EB0D
:1085C80083035B689B6808469847A0B90023EB6063
:1085D80070BD05F5804520230522697FFFF7BAFFA6
:1085E8004FF0FF30F4E73A23FFF7B4FF05232B726F
:1085F8004FF0FF30ECE73A23022231462046FFF7DE
:10860800A9FF05232B724FF0FF30E1E74FF0FF3051
:10861800DEE710B5D0F8D432B03350F82340002C40
:1086280042D004F580439B690BB100230EE004F5AA
:10863800804420230522617FFFF78CFF4FF0FF3035
:108648002CE0E118002008740133DBB2112BF8D9B3
:10865800702323740C23E37504F5804191F860308E
:1086680091F861108B4212D003F6080114F831001A
:10867800A07404EBC1010879207749796177013347
:10868800DBB204F5804181F86030042B07D0122357
:10869800E3601379122B0AD8E360002010BD0B4663
:1086A800002183F86010F2E74FF0FF30F6E7002072
:1086B800F4E700008446D0F8D43203F1B0005CF847
:1086C8002000002842D010B500F58044A4696CB1A0
:1086D800547814F0010F25D0937893B1802B16D1DC
:1086E80008221C49FFF77DFE00202EE000F580409F
:1086F80020230522417F6046FFF72CFF4FF0FF3013
:1087080023E006221449FFF76CFE00201DE000F567
:10871800804024230522417F6046FFF71BFF4FF06E
:10872800FF3012E0B0330CEB830CDCF80430DB696B
:1087380001EBC10103EB81010B79053312799A42F0
:1087480000D91A46FFF74DFE002010BD4FF0FF304C
:10875800704700BF800000208800002010B5D0F8C6
:10876800D432B03350F8234074B304F5804393F8FF
:108778006230012B0ED0137903F00303012B15D0BF
:10878800022B1BD0032B16D104F58043002283F85B
:10879800622010E0137903F00303022BEBD12423AA
:1087A8000522FFF7D7FE4FF0FF3006E004F58043BF
:1087B800002283F862200020E06010BD04F58043A9
:1087C800022283F86220F6E74FF0FF30F5E770B534
:1087D80082B0D0F8D43203F1B00250F82240002C15
:1087E8003ED005460E4600EB82035B685B680DF1E0
:1087F800060269463046984738B904F5804393F82D
:108808006230022B01D000230DE03A2302223146C8
:108818002846FFF79FFE4FF0FF301FE0E2180021C7
:10882800117401339BB20B2BF8D90823E374009A17
:10883800531E190E2175C3F307416175C3F307234E
:10884800A375013AE27502232376BDF806300022AB
:1088580062761A0AA276E3760C23E36002B070BD52
:108868004FF0FF30FAE770B5D0F8D43203F1B00218
:1088780050F82240BCB306460D4600EB82035B6805
:108888005B6801F2064104EB01110A1D0831284614
:108898009847F8B904F5804393F86230022B19D051
:1088A80005F2064504EB0515AA68531E190E217436
:1088B800C3F307416174C3F30723A374013AE27455
:1088C800AB880022227562751A0AA275E37508231F
:1088D800E36070BD3A23022229463046FFF73AFE8C
:1088E8004FF0FF30F5E74FF0FF30F2E7F8B51746E5
:1088F800D0F8D43203F1B00250F82240002C55D001
:1089080005460E4600EB82035B685B6801F2064190
:1089180004EB01110A1D083130469847844690B986
:1089280004F5804393F86230022B0CD0BB7AFD7AB1
:108938002D0445EA03653B7B45EA03257B7B1D4304
:10894800E56000230CE03A23022231462846FFF76F
:1089580001FE4FF0FF3C27E0E218002111740133BB
:108968009D42F9D806F2064604EB0616B268531E75
:10897800190E2175C3F307416175C3F30723A37566
:10898800013AE275B3880022227662761A0AA27644
:10899800E376BA7AFB7A1B0443EA02633A7B43EA3A
:1089A80002237A7B1343E3606046F8BD4FF0FF3C37
:1089B800FAE710B5D0F8D442B03450F8244084B166
:1089C8001A4401F2064304EB0314A3689A4201D83F
:1089D800002010BD21230522FFF7BCFD4FF0FF301A
:1089E800F7E74FF0FF30F4E72DE9F843D0F8D42249
:1089F80002F1B00350F82360002E53D007460C460E
:108A080006EB011144F27003CD5804F2064306EB5D
:108A180003139B8803FB05F5B5F5804F28BF4FF47A
:108A28008045B03200EB82025268D2F8109006F10D
:108A38001008B5FBF3F39BB244F26C028A58414626
:108A48002046C847002824DB2B46424618490978A7
:108A5800384601F0E7FB06EB041244F26C001358A9
:108A680004F2064406EB0414A188B5FBF1F10B44AB
:108A7800135044F2700013585B1A135006F58041E6
:108A88008A6B521B8A6383B9032333720020BDE8C3
:108A9800F8831123042221463846FFF75BFD4FF087
:108AA800FF30F4E74FF0FF30F1E70020EFE700BFB9
:108AB8000D000020F8B51746D0F8D43203F1B00203
:108AC80050F82240002C74D005460E46227A002A1F
:108AD80043D104F5804292F91C20002A45DA04F5B6
:108AE800804292F86220022A49D0B03300EB830317
:108AF8005B689B6808469847002846D1BA78FB7897
:108B08001B0443EA02633A7943EA02237A791A4357
:108B180004EB061144F26C03CA50F8793B7A43EA35
:108B2800002344F270000B5031462846FFF741FFFE
:108B3800002841DB04F58043996904EB061344F2ED
:108B480070029B5806F2064204EB0212928802FB5E
:108B580003F3994222D1022323724FF48043E36046
:108B680031462846FFF740FFF8BD04F5804420232E
:108B78000522617FFFF7EEFC4FF0FF30F4E73A2360
:108B8800FFF7E8FC4FF0FF30EEE73A2302223146C8
:108B98002846FFF7DFFC4FF0FF30E5E704F5804497
:108BA80020230522617F2846FFF7D4FC4FF0FF30D1
:108BB800DAE74FF0FF30D7E74FF0FF30D4E7F8B5EA
:108BC8001546D0F8D43203F1B00250F82240002CF8
:108BD8007AD006460F46227A002A49D104F5804207
:108BE80092F91C20002A4BDA04F5804292F86220A0
:108BF800022A4FD0B03300EB83035B689B680846BA
:108C0800984700284CD1AB78EA78120442EA03620C
:108C18002B7942EA03226B791A4304EB071144F2D9
:108C28006C03CA50A879EB791B0443EA0063287ADD
:108C380043EA0023687A034344F270000B50394634
:108C48003046FFF7B6FE002841DB04F580439969FA
:108C580004EB071344F270029B5807F2064204EB38
:108C68000212928802FB03F3994222D10223237253
:108C78004FF48043E36039463046FFF7B5FEF8BD50
:108C880004F5804420230522617FFFF763FC4FF041
:108C9800FF30F4E73A23FFF75DFC4FF0FF30EEE7D3
:108CA8003A23022239463046FFF754FC4FF0FF3092
:108CB800E5E704F5804420230522617F3046FFF76D
:108CC80049FC4FF0FF30DAE74FF0FF30D7E74FF0BD
:108CD800FF30D4E72DE9F843D0F8D42202F1B003ED
:108CE80050F82350002D5CD007460C4605EB0111C7
:108CF80044F27003CE5804F2064305EB03139B8835
:108D080003FB06F6B6F5804F28BF4FF48046B03215
:108D180000EB82025268D2F8149005F11008B6FBF5
:108D2800F3F39BB244F26C028A5841462046C84786
:108D380000281EDB05EB041244F26C00115804F203
:108D4800064405EB0414A388B6FBF3F42144115040
:108D580044F270001158091B115005F58042906BC0
:108D6800801B906371B93846FFF734FA0020BDE8DC
:108D7800F8830323042221463846FFF7EBFB4FF024
:108D8800FF30F4E701FB03F3B3F5804F28BF4FF43E
:108D98008043424604490978384601F04BFA0020DE
:108DA800E5E74FF0FF30E2E70C0000202DE9F04145
:108DB8001746D0F8D43203F1B00250F82250002DF3
:108DC80000F0998006460C462A7A002A40F08F80E7
:108DD80005F580429269002A58D005F5804292F93B
:108DE8001C20002A5CDBB03300EB83035B689B68C4
:108DF8000846984700285DD1D6F8D432B03306EB40
:108E080083035B68DB6820469847804600285AD170
:108E1800BA78FB781B0443EA02633A7943EA0223EF
:108E28007A791A4305EB041144F26C03CA50F879B5
:108E38003B7A43EA002344F270000B502146304647
:108E4800FFF7B7FD002859DB05EB041244F2700365
:108E5800D35804F2064405EB0414A28802FB03F37A
:108E680005F5804292699A4236D101222A72B3F5F9
:108E7800804F28BF4FF4804305F11002214909783B
:108E8800304601F0D7F94046BDE8F08105F5804548
:108E980020230522697FFFF75DFB4FF0FF38F2E7DB
:108EA80005F5804520230522697FFFF753FB4FF026
:108EB800FF38E8E73A23022221463046FFF74AFB0B
:108EC8004FF0FF38DFE72723022221463046FFF71D
:108ED80041FB4FF0FF38D6E705F5804520230522F2
:108EE800697F3046FFF736FB4FF0FF38CBE7FFF7D7
:108EF800F1FE8046C7E74FF0FF38C4E74FF0FF3870
:108F0800C1E700BF0C0000202DE9F0411646D0F85B
:108F1800D43203F1B00250F82250002D00F0A380A3
:108F280007460C462A7A002A40F0998005F58042C7
:108F38009269002A5ED005F5804292F91C20002A29
:108F480062DBB03300EB83035B689B680846984795
:108F5800002863D1D7F8D432B03307EB83035B68BA
:108F6800DB68204698478046002862D1B378F278BB
:108F7800120442EA0362337942EA032273791A43FC
:108F880005EB041144F26C03CA50B079F3791B0461
:108F980043EA0063307A43EA0023707A034344F2D9
:108FA80070000B5021463846FFF703FD00285DDBB3
:108FB80005EB041244F27003D35804F2064405EB9F
:108FC8000414A28802FB03F305F5804292699A42D1
:108FD8003AD101222A72B3F5804F28BF4FF480435B
:108FE80005F1100223490978384601F023F9404673
:108FF800BDE8F08105F5804520230522697FFFF74C
:10900800A9FA4FF0FF38F2E705F58045202305223D
:10901800697FFFF79FFA4FF0FF38E8E73A2302220B
:1090280021463846FFF796FA05232B724FF0FF3892
:10903800DDE72723022221463846FFF78BFA05236E
:109048002B724FF0FF38D2E705F580452023052223
:10905800697F3846FFF77EFA4FF0FF38C7E7FFF71A
:1090680039FE8046C3E74FF0FF38C0E74FF0FF38BE
:10907800BDE700BF0C00002010B5D0F8D432B033E3
:1090880050F82340D4B1537813F0020F0FD104EBFA
:10909800011244F27003D35844F26C0C52F80C20BD
:1090A800FFF787FC00280CDB0020E06010BD2423BC
:1090B8000522FFF74FFA4FF0FF30F7E74FF0FF3088
:1090C800F4E74FF0FF30F1E708B5D0F8D432B03309
:1090D80050F82330002B7ED013785A2B31D85A2BD6
:1090E80072D8DFE803F03E7171417171717171716D
:1090F8007171717171717171447171717171717185
:109108004D476E714A7171717153715671715C710D
:10911800627171717168717171717171717171714F
:109128007171717171717171717171717171717127
:109138007171717171717171717171717171717117
:109148005000AA2B40D89E2B3ED39E3B0C2B3BD8DD
:10915800DFE803F0223A343A3A3A3A3A3A3A283AC5
:109168002E00FFF717FA35E0FFF753FA32E0FFF762
:10917800A1FA2FE0FFF7F2FA2CE0FFF719F929E03E
:10918800FFF740F926E0FFF76BF923E0FFF71FFB35
:1091980020E0FFF768FB1DE0FFF7A8FB1AE0FFF7E8
:1091A80089FC17E0FFF70BFD14E0FFF7FFFD11E066
:1091B800FFF7AAFE0EE0FFF75FFF0BE0FFF792F95B
:1091C80008E0FFF779F905E020230522FFF7C2F947
:1091D8004FF0FF3008BD4FF0FF30FBE798B108B5FE
:1091E80003460020C3F8B802C3F8C402C3F8D0028B
:1091F80009B1C3F8B412012183F89C121A701846F9
:1092080000F076FF08BD0320704710B582B0002338
:10921800ADF80630B9B10446C0F8B812D0F8D42277
:10922800CB6A43B1AE3250F82230DB6A0DF106004A
:109238009847C4F8D002D4F8D8320133C4F8D832E9
:10924800002002B010BD0320FBE708B500F0AFFF17
:1092580008BD08B5D0F8B83213B11B68984708BDE7
:109268000020FCE708B5D0F8B8325B68984700B929
:1092780008BD0320FCE738B5044600F2AA252846B5
:1092880000F0C4F90123C4F89432B4F8B032C4F839
:10929800983294F8AA1201F01F03012B07D0022B71
:1092A8000AD073B92946204600F084FB38BD294608
:1092B800204600F0BAFBF9E72946204600F0F7FB04
:1092C800F4E701F08001204600F094FFEEE7F8B5DE
:1092D8000446012380F89C320023C0F8943243608E
:1092E800C0F8A43280F8A032D0F8B832E3B15B6895
:1092F800E3B1002198470746D0B940230022114620
:10930800204600F05CFF012684F863614025A4F83C
:1093180060512B4600228021204600F050FF84F83F
:10932800236025843846F8BD0027E6E70027E4E7F0
:109338000327E2E701740020704790F89C32042B61
:1093480004D090F89C32DBB280F89D32042380F878
:109358009C320020704790F89C32042B01D00020EA
:10936800704790F89D32DBB280F89C32F7E708B579
:1093780090F89C32032B01D0002008BDD0F8B832F9
:10938800002BF9D0DB69002BF6D09847F4E708B535
:10939800D0F8D432AE3350F8233053B190F89C2231
:1093A800032A01D0002008BD1B6A23B1984700207A
:1093B800F9E70320F7E70020F5E708B5D0F8D4323D
:1093C800AE3350F8233053B190F89C22032A01D0D1
:1093D800002008BD5B6A23B198470020F9E7032005
:1093E800F7E70020F5E70020704708B5012380F86B
:1093F8009C32D0F8B83223B15B680179984710B92C
:1094080008BD0020FCE70320FAE700207047002091
:10941800704738B504460D46002944D1D0F8943237
:10942800032B01D0084638BDD0F85831B0F8602178
:10943800934209D890F8AA3203F01F03012B12D0E7
:10944800022B1ED0084613E09B1AC0F85831D0F8FA
:1094580064111144C0F864119A4238BF1A4600F0EA
:109468007CFC2846DFE790F8AE12FFF7CEFF18B96C
:1094780094F89C32032B09D0204600F076FC28464D
:10948800D1E790F8AE12FFF7C2FFF0E700F1AE03A4
:1094980054F823301A69002AEED0C4F8D4021B69A4
:1094A80020469847E8E701F07F01FFF7B0FF88B949
:1094B80094F89C32032BB6D100F1AE0354F8233054
:1094C8009A69002AAFD0C4F8D4029B69294620467D
:1094D8009847A8E70020A6E738B504460D460029B6
:1094E8004BD1D0F89432022B07D094F8A00218B1CF
:1094F800002384F8A032284638BD8269038C9A423A
:109508000DD89A4219D094F89C32032B29D0802187
:10951800204600F06FFE204600F032FCE5E7D21A44
:109528008261416A1944416200F00FFC00231A4627
:109538001946204600F07EFED7E742699342E2D8FA
:10954800D0F898329A42DED20022114600F0FDFB94
:109558000021C4F898120B460A46204600F06AFE1D
:10956800C3E7D4F8B832DA68002AD0D00022C4F8A9
:10957800D422DB6820469847C9E741F08001FFF70D
:1095880046FF88B994F89C32032BB5D100F1AE039D
:1095980054F823305A69002AAED0C4F8D4025B6963
:1095A800294620469847A7E70020A5E70B880278B8
:1095B80013440B80037818447047428803789A4212
:1095C80018D930B583B004460D46ADF80630638827
:1095D800BDF806209A420AD20DF10601FFF7E6FF10
:1095E8004378052BF3D18378AB42F0D100E000201B
:1095F80003B030BD002070470346002002E0013070
:10960800C0B201331A78002AF9D170470B78037079
:109618004B7843708B78CA7843EA022343800B79EE
:109628004A7943EA022383808B79CA7943EA022381
:10963800C380704710B50446802100F0DBFD00218F
:10964800204600F0D7FD10BD30B583B004460D4666
:109658000023ADF806304A88130A013B062B00F2B6
:10966800AA80DFE803F0041E32A8A88C9900D0F87D
:10967800B4321B680DF10601007C9847EA88002A7D
:1096880000F0A380BDF80630002B00F099809A42C4
:1096980028BF1A46ADF806200146204600F047FBD1
:1096A8008CE0037C43B9D0F8B8329B6A0DF1060010
:1096B800984702234370E1E7D0F8B832DB6A0DF12E
:1096C8000600984702234370D8E7D2B2052A52D839
:1096D800DFE802F003101D2A3744D0F8B4325B6883
:1096E80023B10DF10601007C9847C7E72946FFF72B
:1096F800A1FF63E0D0F8B4329B6823B10DF10601F5
:10970800007C9847BAE72946FFF794FF56E0D0F85F
:10971800B432DB6823B10DF10601007C9847ADE750
:109728002946FFF787FF49E0D0F8B4321B6923B117
:109738000DF10601007C9847A0E72946FFF77AFF5C
:109748003CE0D0F8B4325B6923B10DF10601007C2E
:10975800984793E72946FFF76DFF2FE0D0F8B4321A
:109768009B6923B10DF10601007C984786E72946DD
:10977800FFF760FF22E02946FFF75CFF1EE0037C4D
:1097880033B9D0F8B8325B6B0DF10600984775E72E
:109798002946FFF74FFF11E0037C43B9D0F8B832F0
:1097A8001B6B0DF1060098470723437066E72946AF
:1097B800FFF740FF02E02946FFF73CFF03B030BD4A
:1097C80029462046FFF736FFF8E7204600F0CDFA95
:1097D800F4E738B504468B88F3B9CB88E3B94B88EE
:1097E8007F2B19D803F07F0590F89C32032B0CD0FF
:1097F80080F89E52294600F00DFD204600F0B5FA8B
:1098080035B1022384F89C3209E0FFF713FF06E024
:10981800012384F89C3202E02046FFF70BFF38BD95
:1098280070B504460E468D782F4B1D70012D10D84B
:1098380090F89C32DAB2022B0FD0032A26D0FFF719
:10984800F9FE294B19782046FFF70CFD0325284619
:1098580070BDFFF7EFFE0325F9E7A5B1456029467E
:10986800FFF7F7FC054638B131462046FFF7E2FE20
:10987800022384F89C32EAE7204600F076FA0323B4
:1098880084F89C32E3E700F070FAE0E7CDB1416874
:109898008D4225D0C9B2FFF7E5FC134B19786160FA
:1098A8002046FFF7D6FC0546B0B131462046FFF703
:1098B800C1FE21792046FFF7D5FC022384F89C32AB
:1098C800C5E7022380F89C3245602946FFF7CAFCA9
:1098D800204600F04AFABAE7204600F046FAB6E712
:1098E80000F043FA0025B2E7C401002008B5CB8890
:1098F800012B0BD190F89C32DAB2022B09D9032A3A
:1099080011D10122011D00F012FA01E0FFF792FEC9
:1099180008BD52B23AB10146002341F8083F01227E
:1099280000F005FAF4E7FFF785FEF1E708B590F8CF
:109938009C32013B022B12D8CB88022B0CD101237D
:10994800C360D0F8A4320BB10323C360022200F134
:109958000C0100F0ECF908BDFFF76CFEFBE7FFF720
:1099680069FEF8E708B54B88012B04D0022B07D015
:10997800FFF760FE08BDC0F8A43200F0F6F9F9E779
:109988008B881B0A80F8A03200F0EFF9F2E708B5DF
:1099980090F89C32013B022B09D84B88012B00D050
:1099A80008BD0023C0F8A43200F0DFF9F8E7FFF79C
:1099B80041FEF5E738B50C7804F06004202C06D099
:1099C800402C04D06CB1FFF735FE002407E0D0F836
:1099D800D432AE3350F823309B689847044620466B
:1099E80038BD4D78092D1DD8DFE805F012191C1671
:1099F8001C08051C0F0BFFF727FEF0E7FFF7E9FE31
:109A0800EDE7FFF70DFF0446E9E7FFF76FFFE6E72D
:109A1800FFF78CFF2C46E2E7FFF7A4FFDFE7FFF72D
:109A2800B6FFDCE7FFF706FED9E770B505460C463A
:109A38000B7803F06003202B07D0402B05D023B10F
:109A4800FFF7F8FD0026304670BD95F89C32013BC3
:109A5800022B26D82179012905D921462846FFF766
:109A6800E9FD0026EFE72846FFF7CFFC68B900F1CB
:109A7800AE0255F82220916889B1C5F8D4029368DE
:109A8800214628469847064600E00326E388002B2F
:109A9800D9D1002ED7D1284600F067F9D3E703269D
:109AA800F4E721462846FFF7C5FD0026CBE72DE958
:109AB800F04106460D468B88DFB20C7804F060044E
:109AC800202C08D0402C06D0DCB1FFF7B3FD0024D1
