:020000040800F2
:100000006001002039020008410200084302000894
:1000100045020008470200084902000800000000ED
:100020000000000000000000000000004B0200087B
:100030004D020008000000004F02000851020008B5
:10004000530200085302000853020008530200083C
:10005000530200085302000853020008530200082C
:10006000530200085302000853020008530200081C
:10007000530200085302000853020008530200080C
:1000800053020008530200085302000853020008FC
:1000900053020008530200085302000853020008EC
:1000A00053020008530200085302000853020008DC
:1000B00053020008530200085302000853020008CC
:1000C00053020008530200085302000853020008BC
:1000D00053020008530200085302000853020008AC
:1000E000530200085302000853020008530200089C
:1000F000530200085302000853020008530200088C
:10010000530200085302000853020008530200087B
:10011000530200085302000853020008530200086B
:10012000530200085302000853020008530200085B
:10013000530200085302000853020008530200084B
:10014000530200085302000853020008530200083B
:10015000530200085302000853020008530200082B
:10016000530200085302000853020008530200081B
:100170005302000853020008530200080000000068
:10018000530200085302000800F002F800F044F89F
:1001900014A696E8000CB244B344DA4501D100F04D
:1001A0003BF8BAE80F000FA696E83000A5EB04056F
:1001B00004EB0607AAEB0704A7F101074FEA1515A0
:1001C0004FEA3414A4F10104AC4201D300F024F846
:1001D00013F0010F18BFFB1A43F0010300F001F800
:1001E000DBE71847A0010000B001000070470000E5
:1001F0000023002400250026103A28BF78C1FBD830
:10020000520728BF30C148BF0B6070471FB500F0D0
:10021000ACF81FBD10B510BD00F02FF81146FFF768
:10022000F5FF00F091F800F04DF803B4FFF7F2FF8E
:1002300003BC00F055F80000094880470948004712
:10024000FEE7FEE7FEE7FEE7FEE7FEE7FEE7FEE786
:10025000FEE7FEE704480549034A054B70470000E6
:10026000F102000889010008600000206001002000
:1002700060000020704770477047754600F02CF80A
:10028000AE4605006946534620F00700854618B083
:1002900020B5FFF7DFFFBDE820404FF000064FF02C
:1002A00000074FF000084FF0000BAC46ACE8C00967
:1002B000ACE8C009ACE8C009ACE8C00921F007010E
:1002C0008D46704710B50446AFF300802046BDE868
:1002D0001040FFF7AABF0000004870470000002050
:1002E00001491820ABBEFEE726000200704700005F
:1002F0004EF68850CEF2000001684FF0000C41F439
:100300007001016043F60001C4F202010A6842F084
:1003100001020A60C1F808C00B684FF6FF72CFF601
:10032000F6621A400A6043F21002C2F200424A60CA
:100330000A6822F480220A60C1F80CC04FF0006104
:1003400040F8801C70470000EFF3108072B6002068
:10035000C0F60C004EF608524168CEF20002106062
:10036000006880F308888847FEE7F1EE100A4FF630
:10037000FF71C0F2C03120EA010040F04070E1EEB0
:10038000100A70479403000800000020600100007C
:04039000F001000870
:040000050800018965
:00000001FF
